:040000000C94090152
:100004000C9400000C9400000C9400000C9400006C
:100014000C9400000C9400000C9400000C94080450
:100024000C9400000C9400000C9400000C9400004C
:100034000C9400000C9400000C9400000C949503A4
:100044000C9400000C9400000C9400000C9400002C
:100054000C9400000C9400000C9400000C9400001C
:100064000C9400000C9400000C9400000C9400000C
:100074000C9400000C9400000C9400000C940000FC
:100084000C9400000C9400000000000074656D7076
:10009400203D2025642043200D0A0054696D65200D
:1000A40053657474696E67002000636C6F636B2022
:1000B4000A0D00436C6F636B00BDC3B0A3203A20EC
:1000C4002564BDC3202564BAD0202564C3CA0A0DA3
:1000D40000616C61726D200A0D00416C61726D20CB
:1000E4004F4E2020202000416C61726D204F464607
:1000F4000074696D6572200A0D0054696D65722083
:100104004F46460054696D6572204F4E20202020D2
:100114000054656D70200A0D0054656D7065726140
:1001240074757265007370656369616C206B6579C1
:1001340020696E74657272757074200D0A006D6F9B
:100144006465203A2031200A0D006D6F6465203A01
:100154002032200A0D006D6F6465203A2033200A96
:100164000D006D6F6465203A2034200A0D0073740D
:100174006172740D0A004469676974616C20436C90
:100184006F636B0077697468204779726F002D4E36
:10019400414E000001002D4E414E00494E460000E4
:1001A400010002008C00010007008E000D00000514
:1001B4009F0002000D05AC0006000F05B700020009
:1001C4001505AC000D001705DE000A002405EB0040
:1001D40002002E05AC000A003005FE000D003A05B1
:1001E400080102004705AC000C0049051D0102008E
:1001F4005505AC0002005705AC000E0059057A0104
:100204000A00670588010100C60598010000F894FA
:10021400EE27ECBBF1E0F5BFE5BFE0936C008DE0A9
:10022400A2E0BB27ED938A95E9F780E090E1A0E096
:10023400B1E0ED930197E9F7E4EAF1E08591959156
:10024400009761F0A591B59105901590BF01F0015B
:1002540005900D920197E1F7FB01F0CF8BBFEFEF13
:10026400EDBFE0E1EEBFC0E0D5E00C9414071A93B3
:1002740010E0E3B3EF77E03049F0E3B3EF771E2FFC
:10028400689420F8E3B3EF77E030E1F7E12F1991B8
:100294000895E89420F8E92D0E94620C99F521FC58
:1002A40017C0E1E0E61511F40E94670CE2E0E615E0
:1002B40031F4E091BA05EF5FE093BA05E150E3E071
:1002C400E61531F4E091BF05EF5FE093BF05E1501F
:1002D40021FE17C0E1E0E61531F4E091B505E150E7
:1002E400E093B505EF5FE2E0E61531F4E091BA057D
:1002F400E150E093BA05EF5FE3E0E61511F40E94E4
:100304006E0C76C0E230A0E0FA0799F521FC17C024
:10031400E1E0E61511F40E94750CE2E0E61531F413
:10032400E091B905EF5FE093B905E150E3E0E6152C
:1003340031F4E091BE05EF5FE093BE05E15021FE8C
:1003440017C0E1E0E61531F4E091B405E150E09323
:10035400B405EF5FE2E0E61531F4E091B905E15050
:10036400E093B905EF5FE3E0E61511F40E947C0C1D
:100374003FC0E430A0E0FA07A9F521FC18C0E1E091
:10038400E61529F4E091B305EF5FE093B305E2E0ED
:10039400E61529F4E091B805EF5FE093B805E3E0D2
:1003A400E61529F4E091BD05EF5FE093BD0521FE5C
:1003B40018C0E1E0E61529F4E091B305E150E093BB
:1003C400B305E2E0E61529F4E091B805E150E093C5
:1003D400B805E3E0E61529F4E091BD05E150E093AA
:1003E400BD0506C0E830A0E0FA0711F4E2E02E26CD
:1003F400E2E0E61509F46CD0E3E0E61509F493D0E5
:100404000895E62D0E94620C39F423FC02C0C7D083
:1004140002C023FCB7D01EC0E230A0E0FA0711F4FA
:10042400E5D018C0E330A0E0FA0711F415D112C0EA
:10043400E430A0E0FA0771F4E0E9F0E0FA93EA931B
:10044400F2010E94DE100E94931184E00E947C0A53
:1004540026963DD10895E1E0E71521F4E2E07E2EF1
:100464001A9A06C0E2E0E71519F41A98E1E07E2E24
:100474000895A091B305AC332CF00E94750CE0E014
:10048400E093B305A091B405AC332CF00E94670C43
:10049400E0E0E093B405A091B505A8311CF0E0E0DC
:1004A400E093B505A091B305A0301CF4EBE3E09311
:1004B400B305A091B405A0301CF4EBE3E093B405BC
:1004C400A091B505A0301CF4E7E1E093B3050895CD
:1004D400A091B805AC331CF0E0E0E093B805A0911E
:1004E400B905AC331CF0E0E0E093B905A091BA057E
:1004F400A8311CF0E0E0E093BA05A091B805A03063
:100504001CF4EBE3E093B805A091B905A0301CF40A
:10051400EBE3E093B905A091BA05A0301CF4E7E140
:10052400E093B8050895A091BD05AC331CF0E0E05C
:10053400E093BD05A091BE05AC331CF0E0E0E09370
:10054400BE05A091BF05A8311CF0E0E0E093BF0513
:10055400A091BD05A0302CF40E947C0CEBE3E09349
:10056400BD05A091BE05A0302CF4EBE3E093BE05DD
:100574000E946E0CA091BF05A0301CF4E7E1E0934B
:10058400BF050895E0E1EA93E0E0F5E00E94830C02
:10059400EDE0F5E00E948D0C0E94E10CC0C0EEEA93
:1005A400F0E00E94E80CE0E1EA93EFE0F5E00E945D
:1005B400830CE5E1F5E00E948D0C0E94E10C0E94A1
:1005C400EF0CEDEBF0E0FA93EA93E091B5050E94AD
:1005D400F40CE091B4050E94F40CE091B3050E9480
:1005E400F40C8CE00E947C0A2E960895E5EDF0E070
:1005F4000E94E80C25FE05C0E0E1EA93E7E1F5E09E
:1006040004C0E0E1EA93E4E2F5E0FA93EA930E949D
:10061400F90CE0E1EA93EEE2F5E00E94FE0CA09111
:10062400BA050E94050DA091BA050E94100D0E9402
:10063400140DA091B9050E94050DA091B9050E9461
:10064400100D0E94140DA091B8050E94050DA091F3
:10065400B8050E94100D63C0E5EFF0E00E94E80CBD
:1006640022FC08C0E0E1EA93E0E3F5E0FA93EA93C0
:100674000E94F90C22FE08C0E0E1EA93EAE3F5E007
:10068400FA93EA930E94F90CE0E1EA93E7E4F5E0D7
:100694000E94FE0CA091BF050E94050DA091BF050C
:1006A4000E94100D0E94140DA091BE050E94050D1C
:1006B400A091BE050E94100D0E94140DA091BD05CD
:1006C4000E94050DA091BD050E94100D28C0E5E112
:1006D400F1E00E94E80CE0E1EA93E9E4F5E00E942D
:1006E400830CE5E5F5E00E94FE0CD201E4E6F0E0BF
:1006F4000E94190DD201E4E6F0E00E943F11DF01EF
:10070400EAE0F0E00E94190DAEE225D3D2010E9486
:10071400E10C0E94EF0CA3E40E94EF0CA0E21BD3B7
:10072400A0E219D308950E941F0DA2ECB5E00E9427
:100734007511EF5FFF4F6F4F7F4F0E947F11E3E80A
:10074400E2BFA091C205B091C3058091C405909108
:10075400C505A83EE3E0BE07E0E08E07E0E09E07A3
:1007640009F053C024FC05C0E091B305EF5FE093AA
:10077400B305E0E0E093C205E093C305E093C4054C
:10078400E093C50576DE25FE12C0A091B505E09183
:10079400BA05EA1761F4A091B405E091B905EA1726
:1007A40031F4E091B805A091B305EA1709F002C04D
:1007B400E1E07E2E22FE1FC0E091BD05E150E093F2
:1007C400BD05B1DEA091BD05B0E0A7FDBFEFE0918E
:1007D400BE05F0E0E7FDFFEFAE0FBF1FE091BF05E0
:1007E400F0E0E7FDFFEFEA0FFB1F309721F4E894F8
:1007F40022F8E1E07E2EE0E0E71508F42CDE26FE88
:1008040003C0EFD2E89426F8FCDD2BC00E941F0D34
:10081400E9E2F1E00E94E80C0F9B05C0AAE0B0E019
:100824000E94150FF9CFE0E0E71518F477241A9821
:1008340016C0E62D0E94620C29F4E8E02E26E0E1C1
:100844002E260DC0E230A0E0FA0719F4E0E22E26CD
:1008540006C0E330A0E0FA0711F4E4E02E26689421
:1008640026F8E991EFBFF991E991B991A99199918C
:10087400899179916991F990199009901895E0E01E
:10088400EBB9E8E9EAB9E6E0E0939500E0E0E0934B
:100894009000E7E6E9B90895E0E0E0937100ECE048
:1008A400E0937000E4E0E0937400EBE10E942D0D0E
:1008B400EBE60E942D0DECE60E942D0D0895AA93FF
:1008C400E4EAE0937400E0917400E078E1F3E091ED
:1008D4007100E87FE830D9F70E94310DE09174008F
:1008E400E078E1F3E0917100E87FE831D9F70E9404
:1008F400380DE0917400E078E1F30E943F0DE9F7D0
:10090400E881E0937300E4E8E0937400E0917400FC
:10091400E078E1F30E943F0DE9F7E0917400E469A7
:100924000E94440D50C0AA931A93E4EAE093740021
:10093400E0917400E078E1F3E0917100E87FE83041
:10094400D9F70E94310DE0917400E078E1F3E09171
:100954007100E87FE831D9F70E94380DE091740006
:10096400E078E1F30E943F0DE9F7E4EAE0937400D4
:10097400E0917400E078E1F3E0917100E87FE03108
:10098400D9F7E1EDE0937300E4E8E0937400E091BB
:100994007400E078E1F3E0917100E87FE034D9F786
:1009A400E4E8E0937400E0917400E078E1F3E0910E
:1009B4007100E87FE835D9F710917300E4E90E94EB
:1009C400440DE12F1881229608950E944B0D0E9438
:1009D400540D30F40E945B0D09F008F401C006C008
:1009E400E2E4F1E00E94E80CE1E06E2E0E945B0D6F
:1009F40030F00E94630D11F008F001C001C006C080
:100A0400EEE4F1E00E94E80CE2E06E2E0E94630D39
:100A140030F00E946B0D11F008F001C001C006C057
:100A2400E3E06E2EEAE5F1E00E94E80C0E946B0D13
:100A340040F00E944B0D0E94540D11F008F001C0CB
:100A440001C006C0E4E06E2EE6E6F1E00E94E80C88
:100A54000895A3E468DFE0937205A5E464DFE093FE
:100A64007405A7E460DFE0937605A4E45CDFE0931B
:100A74007105A6E458DFE0937305A8E454DFE0931E
:100A84007505A1E450DFE093AE05A2E44CDFE093EA
:100A9400AD05B0917205A0E0E09171050E94730D5F
:100AA400E0937D05F0937E0560937F057093800548
:100AB400B0917405A0E0E09173050E94730DE0937A
:100AC4008105F09382056093830570938405B0914A
:100AD4007605A0E0E09175050E94730DE09385050D
:100AE400F09386056093870570938805B091AE05F1
:100AF400A0E0E091AD05F0E0EA2BFB2BAFEAB5E016
:100B04000E94790D0E947A110E947E0DE0E0F0E0CF
:100B14006AEA73E40E946310A8EBBEE182E192E406
:100B24000E94C50FE093AF05F093B0056093B10543
:100B34007093B2050E947E0D0E94870D0E94540F8F
:100B44002F01ABE3F0DEE0937805ADE3ECDEE09358
:100B54007A05AFE3E8DEE0937C05ACE3E4DEE09302
:100B64007705AEE3E0DEE0937905A0E4DCDEE09314
:100B74007B05B0917805A0E0E09177050E94730DA4
:100B8400E0938905F0938A0560938B0570938C0537
:100B9400B0917A05A0E0E09179050E94730DE0938D
:100BA4008D05F0938E0560938F0570939005B09139
:100BB4007C05A0E0E0917B050E94730DE093910514
:100BC400F09392056093930570939405ACE2B1E0C1
:100BD4000E94150F0E948E0D0E949311E0919105C1
:100BE400F091920560919305709194050E94990D7E
:100BF4000E949E0D0E94AF0DE0918105F091820547
:100C040060918305709184050E94990D0E94B80D2E
:100C1400E093A505F093A6056093A7057093A80536
:100C2400A091A505B091A6058091A7059091A8056E
:100C34000E94BF0DA0919505B091960580919705EE
:100C4400909198050E94C60D7F936F93FF93EF9345
:100C54000E94CF0D0E94D80DAF91BF918F919F91AB
:100C64000E94C50FE0939505F09396056093970550
:100C740070939805E0918D05F0918E0560918F0534
:100C8400709190050E948B0F0E9493110E948E0D0B
:100C9400DF01CB010E949E0D0E94DF0DE0918505CE
:100CA400F091860560918705709188050E94990DE1
:100CB4000E94B80DE093A905F093AA056093AB05D3
:100CC4007093AC05A091A905B091AA058091AB05DC
:100CD4009091AC050E94BF0DA0919D05B0919E0519
:100CE40080919F059091A0050E94C60D7F936F93FC
:100CF400FF93EF930E94E80D0E94D80DAF91BF912E
:100D04008F919F910E94C50FE0939D05F0939E05DE
:100D140060939F057093A0050E94CF0D0E94F10D72
:100D24000E94AF0D0E94E80D0E94F10D0E94DF0D9C
:100D34000895AA930E94F80DE0E0E8BB0E94F80D24
:100D4400C29A0E94F80DE881EBBB0E94F80DE3E023
:100D5400E8BB0C947C07AA930E94F80DE1E0E8BB81
:100D64000E94F80DC29A0E94F80DE881EBBB0E9424
:100D7400F80DE2E0E8BB0C947C07AA931A930A935B
:100D840001E010E0AA81A13011F401E110E0AE818C
:100D9400D0DFAC81BD81EC91E030F9F0EE81F0E080
:100DA400E00FF11FE132A0E0FA0711F4A0ECC1DF7B
:100DB400AB81A13030F0EB81E150EB83A0E2CBDFDB
:100DC400F7CFAC81BD81AC91C6DF0F5F1F4FEC81C3
:100DD400FD813196EC83FD83DCCF19810881279650
:100DE4000895E0E1EA93E7E5F5E0FA93EA93E0E0B9
:100DF400EA93A0E0C2DFA1E09CDF8BE08A95F1F7E3
:100E04000895A2E3B0E00E94150FACE30E94FC0D2C
:100E1400ACE00E94FC0DA1E08CDF0E94F80DA6E07E
:100E240088DF0895EFE3E1BBE0EFE2BBEFEFE8BB5F
:100E3400E0B5EB7FE0BD23DDEFEFEABBE7BBE5E028
:100E4400E3BFE1E0E7BFE3E8E2BFE4E0E2B9E0E802
:100E5400E9BFEABF21DDE2E7F1E00E94E80CD1DF5F
:100E6400E0E1EA93E9E5F5E0FA93EA93E1E0EA9355
:100E7400A0E083DFE0E1EA93E7E6F5E0FA93EA93A2
:100E8400E1E0EA93A1E079DFA8EEB3E00E94150F58
:100E9400A8DF7894A4E6B0E00E94150FDADD95DDB2
:100EA400681419F0689426F8862CE62D0E94620CCA
:100EB40039F424FE04C0DBD99E2E20FCEAD913C0E9
:100EC400E230A0E0FA0729F4D2D99E2E20FCE1D921
:100ED4000AC0E330A0E0FA0731F422FC04C0C7D909
:100EE4009E2E20FCD6D9D6CFFFCFAA935D9BFECFF2
:100EF400E881ECB921960895BA93AA93AA81F5DF03
:100F0400A881B981ED91FD913196FE93EE932396DC
:100F140008950E94020EE0E8EA83EFE3EB830E9467
:100F2400B611EE85FF85EF3FAFEFFA0749F4E88588
:100F3400F985FA93EA93A2E9B1E00E94A10BB9C042
:100F4400EF3FAFE7FA0749F4E885F985FA93EA93A6
:100F5400A3E9B1E00E94A10BACC0AB85A73010F0AF
:100F6400E6E0EB871B85E12F1150E03029F00E9469
:100F7400090E0E940E0EF7CFEC85FD856E857F85E8
:100F84000E94AA1131F430E00E94090E0E940E0E54
:100F940031C03B850E94130E09F008F40DC00E9475
:100FA400090E0E940E0E0E94130E28F00E941E0EBF
:100FB4000E94230EF8CF0FC00E94130E40F40E942B
:100FC4001E0E0E94870D0E942F0E3150F5CF0E94F5
:100FD400090E0E940E0EEC85FD856E857F850E94AC
:100FE400340E0E942F0E0E94130E20F00E941E0E3B
:100FF4000E94230E10E0EB85E11778F10E943B0E6E
:101004000E94400E0E94340EDF01CB010E94D20ADE
:101014000E940E0E0E94470E0E941E0E0E94631034
:101024000E94520F0E2F0E944C0E0E94530EFF2757
:10103400662777270E948B0F0E94580E0E941E0E6F
:101044000E945C0E0E942F0EE12F1F5FE03099F684
:101054000E944C0EEEE2EC93CECF0E94610E3197CB
:10106400AA85A08330302CF43195A885B985EDE2AA
:1010740003C0A885B985EBE2EC930E94610E0E943F
:10108400610E3197BF01A32FEAE00E94F110E05DE9
:10109400DB01EC930E94610E3197BF01A32FEAE0BC
:1010A4000E943311E05DDB01EC93A885B985E0E093
:1010B400EC930E94BD1160960895BA93AA93EF979A
:1010C40061970E94B41110E0FE01E85AFF4F0190AD
:1010D400F081E02DE887F987FE01EA5AFF4F01907D
:1010E400F081E02DEE83FF83AE81BF81E0E0F0E08C
:1010F400ED93FC93DE01A45ABF4FED91FD9131961F
:10110400FE93EE933197E4912E2FE03009F4E9C178
:10111400E12FE03039F4253211F411E002C00E94CD
:10112400670EDEC1E130C1F4253219F40E94670E66
:10113400D6C112E0E0E0ED8B00E02D3211F401E0C5
:10114400CFC12B3219F4EBE2ED8BCAC1203219F472
:10115400E0E2ED8BC5C102C0E23039F450E013E0A7
:10116400203311F40068BCC102C0E33091F4203391
:1011740010F02A3308F007C0AAE05A9F502DE22F3E
:10118400E0535E0FADC140E02E3211F414E0A8C16B
:101194000FC0E43099F4203310F02A3308F008C06B
:1011A4000062AAE04A9F402DE22FE0534E0F98C1FF
:1011B4002C3619F4026015E093C103C0E53009F040
:1011C4008FC1E22FE33659F40E946E0E0E94750E11
:1011D4000E946E0EA481AA930E947C0E80C1E53405
:1011E40011F0E53609F403C0E63609F048C0FE0103
:1011F4007696EE87FF870E94820E0E946F110E94EE
:10120400890E0E948E0EAD85AA2332F0AD89AB32D1
:1012140059F0A03281F017C00E94900E0E941F0F57
:101224000E94890EEDE2ED8B07FF05C0ED89EA937C
:101234000E947C0E08C0EE85FF853196EE87FF87FD
:101244003197AD89A08305FF46E0263651F40E940C
:10125400900E0E9493114A93AB89BC890E94C70BDC
:1012640009C00E94900E0E9493114A932A93AC895C
:10127400BD894FDEFE0176960E94950E1EC0E337AF
:1012840039F40E948E0E0E949D0E0E94950E0EC08F
:10129400E037C1F40E948E0E0E949D0EEE87FF87F8
:1012A400AE85BF850E94BA0B1E2F08600F774030B1
:1012B40011F0411708F001C0142F40E0E0E0EC8B7E
:1012C40030E06DC0E43611F0E93611F4046002C078
:1012D400E537A1F4EAE0EC8B01FF08C0E0E0FAECAA
:1012E4006AE97BE30E94A20E1AE022C0E0E1F7E281
:1012F40060E070E00E94A20E15E01AC0E83511F417
:10130400086003C0E83709F0EAC0E0E1EC8B01FFB4
:1013140008C0E0E0F0E060E070E10E94A20E18E096
:1013240007C0E0E0F0E160E070E00E94A20E14E08B
:10133400403011F00F7701C041E001FF08C00E9466
:101344008E0E0E94820E14960E946F110FC002FF2F
:1013540007C00E948E0E0E949D0E0E94DE1006C0E1
:101364000E948E0E0E949D0E66277727EA87FB87D0
:101374006C877D8702FF12C0AD85AA2342F40E94C8
:10138400900E0E94D0100E94890EEDE2ED8BED8943
:10139400E03019F01F5F4F5F01C00B7F342F00FD59
:1013A40014C0151710F4351708F00FC007FF08C054
:1013B40002FF04C00B7F2D89115001C020E301C03E
:1013C40020E20E94670E5150ECCF141790F4006194
:1013D40002FF06C00E94A70E09F05150115041505F
:1013E400E0E3EA930E947C0E503009F051504150E2
:1013F400ECCF312FEC89E030B9F43030A1F003FFA9
:1014040006C0EE85FF852591EE87FF8705C0AE8572
:10141400BF852D91AE87BF870E94670E503009F0BB
:1014240051503150EACF51C00E94B90E0E940E11A2
:101434002E2F2A3030F003FF02C0295C01C0295A44
:1014440001C0205D04FD21C0213360F4A889B9895D
:101454008A899B89A130E0E0BE07E0E08E07E0E0E6
:101464009E0709F40BC0431740F4531710F000FF14
:1014740001C010C020E207FF08C020E3006102FFA2
:1014840004C00E94A70E09F051500E94670E50300C
:1014940009F0515031500E94B90E0E944D110E9422
:1014A400890EEC89A889B9898A899B89FF276627CF
:1014B40077270E940E110E94A20EE889F9896A8991
:1014C4007B890E94AA1109F0AFCF00FF08C05030F9
:1014D40031F05150E0E2EA930E947C0EF8CF10E024
:1014E40009CEAE81BF810E946B110E94BB11EF96A1
:1014F4006F960895FF92F82E26971A930A93DE01A9
:1015040014960E94C8108D01E0E0EC83ED83EE8315
:10151400EF83DE0118960E94C8100E946B11FA93A3
:10152400EA931A930A93EEE7F7E0FA93EA93DE015B
:101534001896C3DD198108812896FF9008950E94AA
:1015440098117B816A81F981E88177FB770F67FDC8
:101554007160972F9E5781F078F0983190F4AA2704
:10156400BB27882708948795B795A7959A95D1F7AF
:10157400EA23FB23682305C0E8947727EE27FF2797
:1015840066276F77769508F4606877F9A991B99121
:1015940089919991EA17FB076807790797FB0895E2
:1015A4000E94C20E0E94A10A0E94C70E19F40E9452
:1015B400CA0E6CC0E6F70E94CD0E0E94BE0F66C034
:1015C4000E94981124970E94470E0E94580E0E9470
:1015D400C70E0E94CA0EA5E6B0ED8BEC90E40E9403
:1015E400D30E0E94580E7F936F93FF93EF930E9444
:1015F400CA0EA0E0BDE689E291E40E94C50F0E94F4
:10160400DC0E0E94D30EAF91BF918F919F910E94E7
:101614006310289608950E94C20EEDECF3E164ED88
:101624007EE30E94A81020F40E94DC0EC9DF2EC0C5
:101634000E94DC0EEAE7F2E86AE170E40E94A81076
:1016440009F008F40BC00E94CD0E0E94DF0EABED32
:10165400BFE089EC9FE30E945C0E18C00E94CD0E8F
:101664000E94BE0F7F936F93FF93EF930E94CD0E62
:101674000E94C50FAF91BF918F919F910E94DF0E81
:10168400ABEDBFE089E49FE30E94C50F2496089563
:101694000E94981124970E94470E0E94AA11E9F40F
:1016A400E885F9856A857B850E94AA1129F4EFEF04
:1016B400FFEF6FE77FE741C0A885B9858A859B85E1
:1016C4000E94AE112CF4EBEDFFE069EC7FE335C032
:1016D400EBEDFFE069EC7FEB30C00E94470EA8857C
:1016E400B9858A859B850E9463100E94C70E0E945B
:1016F4003B0E0E94AE1164F4AB85AA2322F00E9433
:10170400DC0E89DF1AC00E94E50E0E941F0F15C06F
:10171400AB85AA234AF00E94E50EABEDBFE089E455
:1017240090E40E945C0E09C00E94DC0E74DFABEDF5
:10173400BFE089E490EC0E94C50F2C960895BA93FB
:10174400AA93E991F991A991B991CD0105900D92CE
:101754000020E1F7FC010895BA93AA93A991B991E5
:10176400EE27FF276D91662311F03196FBCF089584
:10177400BA93AA93AA27BB27E991F991059000206F
:1017840011F01196FBCFFD0108953AD2E0E0EA830F
:10179400EFE3EB831A930A93EB85FC85EF3FAFEFFE
:1017A400FA0731F417D3AAE9B1E00E94A10B84C06F
:1017B400EF3FAFE7FA0731F40DD3ABE9B1E00E9494
:1017C400A10B7AC0AC85AA2352F4E985FA856B850E
:1017D4007C850E941F0F03D307D3EDE2EC93A88509
:1017E400A73010F0E6E0E8871885E12F1150E030CB
:1017F40021F001D343D204D3F8CF07D30E94C50FFD
:10180400EED210E0E0E0F0E060E87FE3F9D2FDD250
:101814000E94A81068F0EFD278D1F2D21F5F17327D
:1018240030F0D8D2AFE9B1E00E94A10B45C0EFCFB0
:10183400103021F4D9D2E0E3EC931DC0E12F115014
:10184400E030C9F0D8D21AD20DD2DF01CB010E9408
:10185400D20AD6D2DAD20E9463100E94520F0E2FFF
:10186400C3D21FD2F0E0C7D242D10E941510D6D203
:1018740021D2B5D2E3CFE885E030D1F0B5D2EEE2A3
:10188400EC93E885E150E887EF5F91F0C7D23DD152
:10189400A6D2E985FA856B857C850E94520F0E2FAE
:1018A400A3D2FFD1F0E0BAD222D104D298D2E9CFA8
:1018B400AE81BF81E0E0EC93198108812D960895F3
:1018C400F0E0E130A0E0FA070895E091B505EF5F9C
:1018D400E093B505E1500895E091BF05E150E09330
:1018E400BF05EF5F0895E091B405EF5FE093B405A1
:1018F400E1500895E091BE05E150E093BE05EF5F2D
:101904000895FA93EA93E2E0EA93A0E00E94BF0606
:10191400E0E1EA930895FA93EA93E5E0EA93A1E01B
:101924000E94BF06A091B505B0E0A7FDBFEFEAE0B5
:10193400F0E00E940911E05DAE2F0E94AD06A09177
:10194400B505B0E0A7FDBFEFEAE0F0E00E943F116B
:10195400E05DAE2F0E94AD06AAE30E94AD06A09101
:10196400B405B0E0A7FDBFEFEAE0F0E00E94091182
:10197400E05DAE2F0E94AD06A091B405B0E0A7FDD6
:10198400BFEFEAE0F0E00E943F11E05DAE2F0E945D
:10199400AD06AAE30E94AD06A091B305B0E0A7FD91
:1019A400BFEFEAE0F0E00E940911E05DAE2F0E9473
:1019B400AD06A091B305B0E0A7FDBFEF0895EAE03E
:1019C400F0E00E943F11E05DAE2F0895FA93EA9390
:1019D40080E00E947C0A229608950E94AD06A0E24F
:1019E4000C94AD060E94D8100E9493110895E2E071
:1019F400EA93A0E00C94BF06FA93EA93E5E0EA9335
:101A0400A1E00C94BF06B0E0A7FDBFEFEAE0F0E070
:101A14000E940911E05DAE2F0C94AD06B0E0A7FD65
:101A2400BFEFCDCF0E94AD06AAE30C94AD060E9491
:101A34000911E05DAE2F0C94AD060A921A92FA9247
:101A44006A937A938A939A93AA93BA93EA93FA93AA
:101A5400EFB7EA930895EA93A0E00C946104E0EDF3
:101A6400E0937300E4E8E09374000895E981E0935F
:101A74007300E4E8E09374000895E0917100E87F56
:101A8400E8320895E093740088EC90E00197F1F750
:101A94000895A091A105B091A2058091A30590910C
:101AA400A4050895E0E0F0E86DE973E40E94A8104D
:101AB4000895EFDFE0E0F0E064E372E40E94A81030
:101AC4000895E7DFE0E0F0E067E073E40E94A81027
:101AD4000895DFDFE0E0F0E061E673E40E94A8101F
:101AE4000895F0E0EA2BFB2B0E94DE1008950E947B
:101AF400DE100E948B0F0895A091AF05B091B00540
:101B04008091B1059091B2050895E0E0F0E060E2C3
:101B140071E40E9415100895E0918905F0918A05F9
:101B240060918B0570918C050E948B0F08950E9423
:101B34008B0FDF01CB0108950E944A0BA0E0B0E0B7
:101B440084E393E40E941510DF01CB01EBEDFFE089
:101B540069E470E40E9463100895E0939905F0939A
:101B64009A0560939B0570939C050895E0E0F0E06E
:101B740063E073E40E9463100895EFE6F2E163E822
:101B84007AE30E94151008950E94C50FA3E3B3E3FE
:101B940083E79FE30E9415100895E0919905F09161
:101BA4009A0560919B0570919C050895ADECBCEC81
:101BB4008CE49DE30E9415100895E093A105F09331
:101BC400A2056093A3057093A4050895E091A1056F
:101BD400F091A2056091A3057091A4050895A0E079
:101BE400B0E084E393E40E94C50F0895A1E0B0E05F
:101BF4000C94150F0E949B06A8E2B0E00C94150FFC
:101C0400BA93AA932497E0E0E883E9830895AC812A
:101C1400BD818E819F8179CFEC83FD836E837F8329
:101C24000895EC81FD816E817F81AC85BD858E85B3
:101C34009F850E94A8100895AC85BD858E859F85DB
:101C44000895EDECFCEC6CEC7DE30E941510EC8740
:101C5400FD876E877F873F5F0895EC87FD876E87DA
:101C64007F870895A0E0B0E080E09FE30E94C50F65
:101C74000895AC81BD818E819F810895EDECFCECCB
:101C84006CEC7DE30E9415100895EC81FD816E815A
:101C94007F810895A885B9851196A887B98711977A
:101CA4000895E02FE05DEC93E02F0895E2DF0E94B9
:101CB400151008950E949D110E94BE0F0895E88595
:101CC400F9853196E887F98708952A93AF81B88515
:101CD400E985FA8509950895FE01E65AFF4F0190BA
:101CE400F081E02D08953497DE01A65ABF4FED939D
:101CF400FC930895AF81B885E985FA85099508951F
:101D0400DE01A65ABF4F0D90BC91A02D0895EA871D
:101D1400FB876C877D870895DFDFE5CFEA85FB8548
:101D24006C857D850895EE87FF87AE85BF850E940B
:101D3400AE0B1E2F0895E4DF14960E946B110895D4
:101D4400E88BF98B6A8B7B8B08950B7FED89EA9383
:101D5400DE01A95ABF4F0D90BC91A02DFE01E75A98
:101D6400FF4F0190F081E02D099550300895E889E6
:101D7400F9896A897B89AA85BB858C859D850895A7
:101D84000E9498110E94891108950E948E1108954D
:101D94000E9484110895FCDFA0E0B0E080E89FE396
:101DA40008950E941510AEE4BFE88AE491E40E940D
:101DB400C50F08950E94891108950E946310DF01E0
:101DC400CB010C94E20AE4DF0E941F0FDF01CB0178
:101DD4000C940D0BEE81FF81FA93EA930895E98741
:101DE400FA876B877C870895AE81BF811196AE8395
:101DF400BF8311970895AA81BB818C819D81089529
:101E0400EA83FB836C837D830895EA81FB816C8183
:101E14007D81A985BA858B859C850895A985BA8518
:101E24008B859C850895109639F080EA9FE0019790
:101E3400F1F7A8951197C9F708953097604070405D
:101E440009F070580895552342F4503811F4E0FF16
:101E540004C03196691F791F6BF050E8572711F4BD
:101E64005F93CFC05F3F31F0660F000C57956795C5
:101E7400752F08955F9300200AF0CFC0C8C050E8C2
:101E8400192E1522880F991F9527550F879550E80D
:101E9400072E0522660F771F7527550F679508953E
:101EA400689401C0E8945F93F2DF703818F07F3FC4
:101EB40008F4A7C056E1571BAAF4519558300EF404
:101EC400593030F0EFEFFFEF6FEF7FE777F91AC08B
:101ED40077275523B9F0EE0FFF1F661F771F5A951A
:101EE400D1F710C07727583028F0EF2FF62F672F3F
:101EF4005850F9CF552331F076956795F795E795C6
:101F04005A95D1F700200AF449D15F910895689455
:101F140001C0E894309760407040B1F0002426F08E
:101F2400772312F400943AD1172E7EE1112032F077
:101F34007A95EE0FFF1F661F111CF9CFEF2FF62FB6
:101F4400612D5F938ADF5F9108954F93AF01FD0187
:101F5400DA01AB01BC01CA01402D012C142E4F91B2
:101F64000895EA0FFB1F681F0895E095F0956095AA
:101F7400EF5FFF4F6F4F08955F9381DF903871F1EA
:101F840050E8152604C05F937ADF903839F1703831
:101F940021F1572F591B2BF112F4D7DFFACF583107
:101FA40018F0AA27BB278827583028F0AB2FB82F62
:101FB40088275850F9CF552329F08695B795A795CA
:101FC4005A95D9F7502D512572F0CBDF38F4679527
:101FD400F795E795739513F420C0B7DF3EDF5F9163
:101FE4000895D8F7FBCFEA1BFB0B680B51F010F4F4
:101FF4000094BBDF662392F3EE0FFF1F661F7A95F2
:10200400CBF7EE27FF27662777275F910895EFEF39
:10201400FFEF6FE77FEF5F910895EFEFFFEF6FE75B
:102024007FE75F9108955F932ADF703851F390380A
:1020340041F301240894791F23F41CF300203AF39C
:10204400ECCF0F921F932F933F934F931127222787
:102054009927689FA0018F9F302D410D591F6B9FB9
:10206400300D411D591F8E9F27D0BF9F25D06A9FD9
:1020740023D0BE9F1DD0AF9F1BD0AE9F110D291F33
:10208400391F491F591FE32FF42F652F522F4F91EA
:102094003F912F911F910F9066232AF0550FEE1F49
:1020A400FF1F661F02C073954BF2CDDE5F9108954A
:1020B400100D211D391F02C0200D311D491F591F4C
:1020C40008955F93DCDE703821F411200AF49FCF69
:1020D400A4CF903809F495CF01240894970B1BF4EE
:1020E400D4F30020F3CF792F1F932F933F934F9373
:1020F40011241127222733274427552790E2AE17AE
:10210400BF078607410730F0AE1BBF0B860B410BA0
:10211400089401C08894551F221F331F111CAA1F45
:10212400BB1F881F441F9A9551F7F901612D4F91E8
:102134003F912F911F91662332F0550FEE1FFF1F21
:10214400661F7A9543F27FDE5F91089599239AF092
:10215400772342F0971748F029F4AE17BF07860794
:1021640020F031F0989488940895989408940895F0
:102174001894889408957723C2F7971798F3A9F7CA
:10218400EA17FB07680788F399F3ECCF0024AF0D37
:10219400B01D0895F195E195F0400895F09560958E
:1021A4007095E195FF4F6F4F7F4F0895FE2FFF0FFE
:1021B400FF0B6F2F7F2F08956F2F660F660B762FFF
:1021C4000895002498E0AA0F001C0E1A10F40E0EB5
:1021D40001C0A1609A95B9F7EA2FA02D08955FD0A8
:1021E400F0DF0EF4E19508950024112490E1AA0F84
:1021F400BB1F001C111C0E1A1F0A18F40E0E1F1E02
:1022040001C0A1609A9599F7FD01D001089553D0BA
:10221400EBDF0EF4BFDF08953F934F935F930024E9
:1022240011244427552730E2AA0FBB1F881F991F8A
:10223400001C111C441F551F0E1A1F0A460B570B76
:1022440028F40E0E1F1E461F571F01C0A1603A95A9
:1022540059F7FD01BC01D001CA015F914F913F9133
:102264000895E894A7FF02C0A1956894E7FDE1955D
:10227400A8DFEA2F0EF4E1950895E894B7FF04C0AF
:10228400A095B09511966894F7FD84DFADDFFD014C
:102294000EF480DF0895C0DFFD01BC010895E894C9
:1022A400E7FF02C0E1956894A7FF04C0A19500F878
:1022B400039400FA0895E894F7FF02C06BDF689472
:1022C400B7FF06C0A095B095119600F8039400FAE4
:1022D4000895ED91FC9111970895ED91FD916D9103
:1022E4007C9113970895ED91FD916D917D910895E1
:1022F400ED93FD936D937C9308957E936E93FE937B
:10230400EE930895E881F9816A817B810895A8811B
:10231400B9818A819B810895E883F9836A837B83E9
:1023240008957A936A93FA93EA9308959A938A9311
:10233400BA93AA930895182E862F612D192E972FDC
:10234400712D1B2EBF2FF12D1A2EAE2FE12D0895C6
:10235400309760407040089500240A160B06080662
:10236400090608955A934A933A932A931A930A931F
:1023740008955D814C813B812A81198108810895EA
:00000001FF
